{
  "contractName": "Voting",
  "abi": [
    {
      "anonymous": false,
      "inputs": [
        {
          "indexed": true,
          "internalType": "address",
          "name": "previousOwner",
          "type": "address"
        },
        {
          "indexed": true,
          "internalType": "address",
          "name": "newOwner",
          "type": "address"
        }
      ],
      "name": "OwnershipTransferred",
      "type": "event"
    },
    {
      "anonymous": false,
      "inputs": [
        {
          "indexed": false,
          "internalType": "uint256",
          "name": "proposalId",
          "type": "uint256"
        }
      ],
      "name": "ProposalRegistered",
      "type": "event"
    },
    {
      "anonymous": false,
      "inputs": [],
      "name": "ProposalsRegistrationEnded",
      "type": "event"
    },
    {
      "anonymous": false,
      "inputs": [],
      "name": "ProposalsRegistrationStarted",
      "type": "event"
    },
    {
      "anonymous": false,
      "inputs": [
        {
          "indexed": false,
          "internalType": "address",
          "name": "voter",
          "type": "address"
        },
        {
          "indexed": false,
          "internalType": "uint256",
          "name": "proposalId",
          "type": "uint256"
        }
      ],
      "name": "Voted",
      "type": "event"
    },
    {
      "anonymous": false,
      "inputs": [
        {
          "indexed": false,
          "internalType": "address",
          "name": "voterAddress",
          "type": "address"
        }
      ],
      "name": "VoterRegistered",
      "type": "event"
    },
    {
      "anonymous": false,
      "inputs": [],
      "name": "VotesTallied",
      "type": "event"
    },
    {
      "anonymous": false,
      "inputs": [],
      "name": "VotingSessionEnded",
      "type": "event"
    },
    {
      "anonymous": false,
      "inputs": [],
      "name": "VotingSessionStarted",
      "type": "event"
    },
    {
      "anonymous": false,
      "inputs": [
        {
          "indexed": false,
          "internalType": "enum Voting.WorkflowStatus",
          "name": "previousStatus",
          "type": "uint8"
        },
        {
          "indexed": false,
          "internalType": "enum Voting.WorkflowStatus",
          "name": "newStatus",
          "type": "uint8"
        }
      ],
      "name": "WorkflowStatusChange",
      "type": "event"
    },
    {
      "inputs": [
        {
          "internalType": "uint256",
          "name": "",
          "type": "uint256"
        }
      ],
      "name": "addresses",
      "outputs": [
        {
          "internalType": "address",
          "name": "",
          "type": "address"
        }
      ],
      "stateMutability": "view",
      "type": "function",
      "constant": true
    },
    {
      "inputs": [],
      "name": "currentWorkflow",
      "outputs": [
        {
          "internalType": "enum Voting.WorkflowStatus",
          "name": "",
          "type": "uint8"
        }
      ],
      "stateMutability": "view",
      "type": "function",
      "constant": true
    },
    {
      "inputs": [],
      "name": "owner",
      "outputs": [
        {
          "internalType": "address",
          "name": "",
          "type": "address"
        }
      ],
      "stateMutability": "view",
      "type": "function",
      "constant": true
    },
    {
      "inputs": [
        {
          "internalType": "uint256",
          "name": "",
          "type": "uint256"
        }
      ],
      "name": "proposals",
      "outputs": [
        {
          "internalType": "string",
          "name": "description",
          "type": "string"
        },
        {
          "internalType": "uint256",
          "name": "voteCount",
          "type": "uint256"
        }
      ],
      "stateMutability": "view",
      "type": "function",
      "constant": true
    },
    {
      "inputs": [],
      "name": "renounceOwnership",
      "outputs": [],
      "stateMutability": "nonpayable",
      "type": "function"
    },
    {
      "inputs": [
        {
          "internalType": "address",
          "name": "newOwner",
          "type": "address"
        }
      ],
      "name": "transferOwnership",
      "outputs": [],
      "stateMutability": "nonpayable",
      "type": "function"
    },
    {
      "inputs": [
        {
          "internalType": "address",
          "name": "",
          "type": "address"
        }
      ],
      "name": "whitelist",
      "outputs": [
        {
          "internalType": "bool",
          "name": "isRegistered",
          "type": "bool"
        },
        {
          "internalType": "bool",
          "name": "hasVoted",
          "type": "bool"
        },
        {
          "internalType": "uint256",
          "name": "votedProposalId",
          "type": "uint256"
        }
      ],
      "stateMutability": "view",
      "type": "function",
      "constant": true
    },
    {
      "inputs": [],
      "name": "winningProposalId",
      "outputs": [
        {
          "internalType": "uint256",
          "name": "",
          "type": "uint256"
        }
      ],
      "stateMutability": "view",
      "type": "function",
      "constant": true
    },
    {
      "inputs": [],
      "name": "tallyVotes",
      "outputs": [],
      "stateMutability": "nonpayable",
      "type": "function"
    },
    {
      "inputs": [],
      "name": "endVotingSession",
      "outputs": [],
      "stateMutability": "nonpayable",
      "type": "function"
    },
    {
      "inputs": [
        {
          "internalType": "uint256",
          "name": "proposalId",
          "type": "uint256"
        }
      ],
      "name": "registerVote",
      "outputs": [],
      "stateMutability": "nonpayable",
      "type": "function"
    },
    {
      "inputs": [],
      "name": "startVotingSession",
      "outputs": [],
      "stateMutability": "nonpayable",
      "type": "function"
    },
    {
      "inputs": [],
      "name": "endProposalsRegistration",
      "outputs": [],
      "stateMutability": "nonpayable",
      "type": "function"
    },
    {
      "inputs": [
        {
          "internalType": "string",
          "name": "description",
          "type": "string"
        }
      ],
      "name": "registerProposal",
      "outputs": [],
      "stateMutability": "nonpayable",
      "type": "function"
    },
    {
      "inputs": [],
      "name": "startProposalsRegistration",
      "outputs": [],
      "stateMutability": "nonpayable",
      "type": "function"
    },
    {
      "inputs": [
        {
          "internalType": "address",
          "name": "_address",
          "type": "address"
        }
      ],
      "name": "addToWhitelist",
      "outputs": [],
      "stateMutability": "nonpayable",
      "type": "function"
    },
    {
      "inputs": [],
      "name": "getAddresses",
      "outputs": [
        {
          "internalType": "address[]",
          "name": "",
          "type": "address[]"
        }
      ],
      "stateMutability": "view",
      "type": "function",
      "constant": true
    },
    {
      "inputs": [],
      "name": "getProposals",
      "outputs": [
        {
          "components": [
            {
              "internalType": "string",
              "name": "description",
              "type": "string"
            },
            {
              "internalType": "uint256",
              "name": "voteCount",
              "type": "uint256"
            }
          ],
          "internalType": "struct Voting.Proposal[]",
          "name": "",
          "type": "tuple[]"
        }
      ],
      "stateMutability": "view",
      "type": "function",
      "constant": true
    },
    {
      "inputs": [],
      "name": "getWorkflow",
      "outputs": [
        {
          "internalType": "enum Voting.WorkflowStatus",
          "name": "",
          "type": "uint8"
        }
      ],
      "stateMutability": "view",
      "type": "function",
      "constant": true
    },
    {
      "inputs": [],
      "name": "getWinningProposalId",
      "outputs": [
        {
          "internalType": "uint256",
          "name": "",
          "type": "uint256"
        }
      ],
      "stateMutability": "view",
      "type": "function",
      "constant": true
    },
    {
      "inputs": [],
      "name": "isOwner",
      "outputs": [
        {
          "internalType": "bool",
          "name": "",
          "type": "bool"
        }
      ],
      "stateMutability": "view",
      "type": "function",
      "constant": true
    }
  ],
  "bytecode": "0x608060405234801561001057600080fd5b50600061002a6100cd640100000000026401000000009004565b9050806000806101000a81548173ffffffffffffffffffffffffffffffffffffffff021916908373ffffffffffffffffffffffffffffffffffffffff1602179055508073ffffffffffffffffffffffffffffffffffffffff16600073ffffffffffffffffffffffffffffffffffffffff167f8be0079c531659141344cd1fd0a4f28419497f9722a3daafe3b4186f6b6457e060405160405180910390a3506100d5565b600033905090565b612290806100e46000396000f3fe608060405234801561001057600080fd5b5060043610610154576000357c0100000000000000000000000000000000000000000000000000000000900480639b19251a116100d5578063e09b8c7911610099578063e09b8c79146102ee578063e43252d7146102f8578063e81e977b14610314578063edf26d9b14610332578063ee74c67814610362578063f2fde38b1461036c57610154565b80639b19251a14610258578063a39fac121461028a578063a56692ea146102a8578063a7bfab16146102c6578063c64963c5146102d057610154565b806362564c481161011c57806362564c48146101ea5780636c29744514610208578063715018a6146102125780638da5cb5b1461021c5780638f32d59b1461023a57610154565b8063013cf08b146101595780631424ffbe1461018a5780632f95355b146101a8578063378a2178146101c4578063464d4a92146101ce575b600080fd5b610173600480360381019061016e91906118f8565b610388565b604051610181929190611d1d565b60405180910390f35b610192610444565b60405161019f9190611cd9565b60405180910390f35b6101c260048036038101906101bd91906118ab565b610457565b005b6101cc610661565b005b6101e860048036038101906101e391906118f8565b61078d565b005b6101f2610aa8565b6040516101ff9190611c65565b60405180910390f35b610210610ba3565b005b61021a610ccf565b005b610224610e09565b6040516102319190611bff565b60405180910390f35b610242610e32565b60405161024f9190611c87565b60405180910390f35b610272600480360381019061026d919061187e565b610e6f565b60405161028193929190611ca2565b60405180910390f35b610292610eb3565b60405161029f9190611c43565b60405180910390f35b6102b0610f41565b6040516102bd9190611cd9565b60405180910390f35b6102ce610f58565b005b6102d8611084565b6040516102e59190611e0d565b60405180910390f35b6102f661108a565b005b610312600480360381019061030d919061187e565b6111b6565b005b61031c6113c0565b6040516103299190611e0d565b60405180910390f35b61034c600480360381019061034791906118f8565b6113ca565b6040516103599190611bff565b60405180910390f35b61036a611409565b005b6103866004803603810190610381919061187e565b611535565b005b6005818154811061039857600080fd5b90600052602060002090600202016000915090508060000180546103bb90611f9b565b80601f01602080910402602001604051908101604052809291908181526020018280546103e790611f9b565b80156104345780601f1061040957610100808354040283529160200191610434565b820191906000526020600020905b81548152906001019060200180831161041757829003601f168201915b5050505050908060010154905082565b600260009054906101000a900460ff1681565b3360011515600360008373ffffffffffffffffffffffffffffffffffffffff1673ffffffffffffffffffffffffffffffffffffffff16815260200190815260200160002060000160009054906101000a900460ff161515146104ee576040517f08c379a00000000000000000000000000000000000000000000000000000000081526004016104e590611d8d565b60405180910390fd5b600180600581111561050357610502612045565b5b600260009054906101000a900460ff16600581111561052557610524612045565b5b14610565576040517f08c379a000000000000000000000000000000000000000000000000000000000815260040161055c90611ded565b60405180910390fd5b6005604051806040016040528086868080601f016020809104026020016040519081016040528093929190818152602001838380828437600081840152601f19601f82011690508083019250505050505050815260200160008152509080600181540180825580915050600190039060005260206000209060020201600090919091909150600082015181600001908051906020019061060692919061175b565b506020820151816001015550507f92e393e9b54e2f801d3ea4beb0c5e71a21cc34a5d34b77d0fb8a3aa1650dc18f60016005805490506106469190611ec7565b6040516106539190611e0d565b60405180910390a150505050565b6106696116de565b73ffffffffffffffffffffffffffffffffffffffff16610687610e09565b73ffffffffffffffffffffffffffffffffffffffff16146106dd576040517f08c379a00000000000000000000000000000000000000000000000000000000081526004016106d490611d6d565b60405180910390fd5b60048060058111156106f2576106f1612045565b5b600260009054906101000a900460ff16600581111561071457610713612045565b5b14610754576040517f08c379a000000000000000000000000000000000000000000000000000000000815260040161074b90611ded565b60405180910390fd5b61075e60056116e6565b7f0e5e95ff8725ab3e7a4b6b59998a4c344c2aa8d1485f5e60cb7f337768e6134760405160405180910390a150565b3360011515600360008373ffffffffffffffffffffffffffffffffffffffff1673ffffffffffffffffffffffffffffffffffffffff16815260200190815260200160002060000160009054906101000a900460ff16151514610824576040517f08c379a000000000000000000000000000000000000000000000000000000000815260040161081b90611d8d565b60405180910390fd5b600380600581111561083957610838612045565b5b600260009054906101000a900460ff16600581111561085b5761085a612045565b5b1461089b576040517f08c379a000000000000000000000000000000000000000000000000000000000815260040161089290611ded565b60405180910390fd5b60001515600360003373ffffffffffffffffffffffffffffffffffffffff1673ffffffffffffffffffffffffffffffffffffffff16815260200190815260200160002060000160019054906101000a900460ff16151514610931576040517f08c379a000000000000000000000000000000000000000000000000000000000815260040161092890611dad565b60405180910390fd5b6001600360003373ffffffffffffffffffffffffffffffffffffffff1673ffffffffffffffffffffffffffffffffffffffff16815260200190815260200160002060000160016101000a81548160ff02191690831515021790555082600360003373ffffffffffffffffffffffffffffffffffffffff1673ffffffffffffffffffffffffffffffffffffffff16815260200190815260200160002060010181905550600583815481106109e7576109e66120a3565b5b90600052602060002090600202016001016000815480929190610a0990611fcd565b9190505550600560015481548110610a2457610a236120a3565b5b90600052602060002090600202016001015460058481548110610a4a57610a496120a3565b5b9060005260206000209060020201600101541115610a6a57826001819055505b7f4d99b957a2bc29a30ebd96a7be8e68fe50a3c701db28a91436490b7d53870ca43384604051610a9b929190611c1a565b60405180910390a1505050565b60606005805480602002602001604051908101604052809291908181526020016000905b82821015610b9a5783829060005260206000209060020201604051806040016040529081600082018054610aff90611f9b565b80601f0160208091040260200160405190810160405280929190818152602001828054610b2b90611f9b565b8015610b785780601f10610b4d57610100808354040283529160200191610b78565b820191906000526020600020905b815481529060010190602001808311610b5b57829003601f168201915b5050505050815260200160018201548152505081526020019060010190610acc565b50505050905090565b610bab6116de565b73ffffffffffffffffffffffffffffffffffffffff16610bc9610e09565b73ffffffffffffffffffffffffffffffffffffffff1614610c1f576040517f08c379a0000000000000000000000000000000000000000000000000000000008152600401610c1690611d6d565b60405180910390fd5b6001806005811115610c3457610c33612045565b5b600260009054906101000a900460ff166005811115610c5657610c55612045565b5b14610c96576040517f08c379a0000000000000000000000000000000000000000000000000000000008152600401610c8d90611ded565b60405180910390fd5b610ca060026116e6565b7f240cb87b2e4df4c318e72bd714d45a9cad60249e883ff56b1fffd83a4595a8fa60405160405180910390a150565b610cd76116de565b73ffffffffffffffffffffffffffffffffffffffff16610cf5610e09565b73ffffffffffffffffffffffffffffffffffffffff1614610d4b576040517f08c379a0000000000000000000000000000000000000000000000000000000008152600401610d4290611d6d565b60405180910390fd5b600073ffffffffffffffffffffffffffffffffffffffff1660008054906101000a900473ffffffffffffffffffffffffffffffffffffffff1673ffffffffffffffffffffffffffffffffffffffff167f8be0079c531659141344cd1fd0a4f28419497f9722a3daafe3b4186f6b6457e060405160405180910390a360008060006101000a81548173ffffffffffffffffffffffffffffffffffffffff021916908373ffffffffffffffffffffffffffffffffffffffff160217905550565b60008060009054906101000a900473ffffffffffffffffffffffffffffffffffffffff16905090565b6000610e3c610e09565b73ffffffffffffffffffffffffffffffffffffffff163373ffffffffffffffffffffffffffffffffffffffff1614905090565b60036020528060005260406000206000915090508060000160009054906101000a900460ff16908060000160019054906101000a900460ff16908060010154905083565b60606004805480602002602001604051908101604052809291908181526020018280548015610f3757602002820191906000526020600020905b8160009054906101000a900473ffffffffffffffffffffffffffffffffffffffff1673ffffffffffffffffffffffffffffffffffffffff1681526020019060010190808311610eed575b5050505050905090565b6000600260009054906101000a900460ff16905090565b610f606116de565b73ffffffffffffffffffffffffffffffffffffffff16610f7e610e09565b73ffffffffffffffffffffffffffffffffffffffff1614610fd4576040517f08c379a0000000000000000000000000000000000000000000000000000000008152600401610fcb90611d6d565b60405180910390fd5b6003806005811115610fe957610fe8612045565b5b600260009054906101000a900460ff16600581111561100b5761100a612045565b5b1461104b576040517f08c379a000000000000000000000000000000000000000000000000000000000815260040161104290611ded565b60405180910390fd5b61105560046116e6565b7fc379d349a6301baf50fb2f98d829f4ae10b1cdb7c66f4e4d8117302df7b8cd4c60405160405180910390a150565b60015481565b6110926116de565b73ffffffffffffffffffffffffffffffffffffffff166110b0610e09565b73ffffffffffffffffffffffffffffffffffffffff1614611106576040517f08c379a00000000000000000000000000000000000000000000000000000000081526004016110fd90611d6d565b60405180910390fd5b600080600581111561111b5761111a612045565b5b600260009054906101000a900460ff16600581111561113d5761113c612045565b5b1461117d576040517f08c379a000000000000000000000000000000000000000000000000000000000815260040161117490611ded565b60405180910390fd5b61118760016116e6565b7f344c25562921d075a298d34b6dd1fd00d36ff293974539dfd4a8c625d9f0064c60405160405180910390a150565b6111be6116de565b73ffffffffffffffffffffffffffffffffffffffff166111dc610e09565b73ffffffffffffffffffffffffffffffffffffffff1614611232576040517f08c379a000000000000000000000000000000000000000000000000000000000815260040161122990611d6d565b60405180910390fd5b60001515600360008373ffffffffffffffffffffffffffffffffffffffff1673ffffffffffffffffffffffffffffffffffffffff16815260200190815260200160002060000160009054906101000a900460ff161515146112c8576040517f08c379a00000000000000000000000000000000000000000000000000000000081526004016112bf90611dcd565b60405180910390fd5b6001600360008373ffffffffffffffffffffffffffffffffffffffff1673ffffffffffffffffffffffffffffffffffffffff16815260200190815260200160002060000160006101000a81548160ff0219169083151502179055506004819080600181540180825580915050600190039060005260206000200160009091909190916101000a81548173ffffffffffffffffffffffffffffffffffffffff021916908373ffffffffffffffffffffffffffffffffffffffff1602179055507fb6be2187d059cc2a55fe29e0e503b566e1e0f8c8780096e185429350acffd3dd816040516113b59190611bff565b60405180910390a150565b6000600154905090565b600481815481106113da57600080fd5b906000526020600020016000915054906101000a900473ffffffffffffffffffffffffffffffffffffffff1681565b6114116116de565b73ffffffffffffffffffffffffffffffffffffffff1661142f610e09565b73ffffffffffffffffffffffffffffffffffffffff1614611485576040517f08c379a000000000000000000000000000000000000000000000000000000000815260040161147c90611d6d565b60405180910390fd5b600280600581111561149a57611499612045565b5b600260009054906101000a900460ff1660058111156114bc576114bb612045565b5b146114fc576040517f08c379a00000000000000000000000000000000000000000000000000000000081526004016114f390611ded565b60405180910390fd5b61150660036116e6565b7f1b8e19a458c1bcd88553332c518cc5c4e2d5793e712ee766d4f1c14f672ef1f560405160405180910390a150565b61153d6116de565b73ffffffffffffffffffffffffffffffffffffffff1661155b610e09565b73ffffffffffffffffffffffffffffffffffffffff16146115b1576040517f08c379a00000000000000000000000000000000000000000000000000000000081526004016115a890611d6d565b60405180910390fd5b600073ffffffffffffffffffffffffffffffffffffffff168173ffffffffffffffffffffffffffffffffffffffff161415611621576040517f08c379a000000000000000000000000000000000000000000000000000000000815260040161161890611d4d565b60405180910390fd5b8073ffffffffffffffffffffffffffffffffffffffff1660008054906101000a900473ffffffffffffffffffffffffffffffffffffffff1673ffffffffffffffffffffffffffffffffffffffff167f8be0079c531659141344cd1fd0a4f28419497f9722a3daafe3b4186f6b6457e060405160405180910390a3806000806101000a81548173ffffffffffffffffffffffffffffffffffffffff021916908373ffffffffffffffffffffffffffffffffffffffff16021790555050565b600033905090565b7f0a97a4ee45751e2abf3e4fc8946939630b11b371ea8ae39ccdc3056e98f5cc3f600260009054906101000a900460ff1682604051611726929190611cf4565b60405180910390a180600260006101000a81548160ff0219169083600581111561175357611752612045565b5b021790555050565b82805461176790611f9b565b90600052602060002090601f01602090048101928261178957600085556117d0565b82601f106117a257805160ff19168380011785556117d0565b828001600101855582156117d0579182015b828111156117cf5782518255916020019190600101906117b4565b5b5090506117dd91906117e1565b5090565b5b808211156117fa5760008160009055506001016117e2565b5090565b60008135905061180d8161222c565b92915050565b60008083601f840112611829576118286120d7565b5b8235905067ffffffffffffffff811115611846576118456120d2565b5b602083019150836001820283011115611862576118616120dc565b5b9250929050565b60008135905061187881612243565b92915050565b600060208284031215611894576118936120e6565b5b60006118a2848285016117fe565b91505092915050565b600080602083850312156118c2576118c16120e6565b5b600083013567ffffffffffffffff8111156118e0576118df6120e1565b5b6118ec85828601611813565b92509250509250929050565b60006020828403121561190e5761190d6120e6565b5b600061191c84828501611869565b91505092915050565b60006119318383611951565b60208301905092915050565b60006119498383611ba4565b905092915050565b61195a81611efb565b82525050565b61196981611efb565b82525050565b600061197a82611e48565b6119848185611e83565b935061198f83611e28565b8060005b838110156119c05781516119a78882611925565b97506119b283611e69565b925050600181019050611993565b5085935050505092915050565b60006119d882611e53565b6119e28185611e94565b9350836020820285016119f485611e38565b8060005b85811015611a305784840389528151611a11858261193d565b9450611a1c83611e76565b925060208a019950506001810190506119f8565b50829750879550505050505092915050565b611a4b81611f0d565b82525050565b611a5a81611f56565b82525050565b6000611a6b82611e5e565b611a758185611ea5565b9350611a85818560208601611f68565b611a8e816120eb565b840191505092915050565b6000611aa482611e5e565b611aae8185611eb6565b9350611abe818560208601611f68565b611ac7816120eb565b840191505092915050565b6000611adf602683611eb6565b9150611aea826120fc565b604082019050919050565b6000611b02602083611eb6565b9150611b0d8261214b565b602082019050919050565b6000611b25601783611eb6565b9150611b3082612174565b602082019050919050565b6000611b48601983611eb6565b9150611b538261219d565b602082019050919050565b6000611b6b601b83611eb6565b9150611b76826121c6565b602082019050919050565b6000611b8e601583611eb6565b9150611b99826121ef565b602082019050919050565b60006040830160008301518482036000860152611bc18282611a60565b9150506020830151611bd66020860182611be1565b508091505092915050565b611bea81611f4c565b82525050565b611bf981611f4c565b82525050565b6000602082019050611c146000830184611960565b92915050565b6000604082019050611c2f6000830185611960565b611c3c6020830184611bf0565b9392505050565b60006020820190508181036000830152611c5d818461196f565b905092915050565b60006020820190508181036000830152611c7f81846119cd565b905092915050565b6000602082019050611c9c6000830184611a42565b92915050565b6000606082019050611cb76000830186611a42565b611cc46020830185611a42565b611cd16040830184611bf0565b949350505050565b6000602082019050611cee6000830184611a51565b92915050565b6000604082019050611d096000830185611a51565b611d166020830184611a51565b9392505050565b60006040820190508181036000830152611d378185611a99565b9050611d466020830184611bf0565b9392505050565b60006020820190508181036000830152611d6681611ad2565b9050919050565b60006020820190508181036000830152611d8681611af5565b9050919050565b60006020820190508181036000830152611da681611b18565b9050919050565b60006020820190508181036000830152611dc681611b3b565b9050919050565b60006020820190508181036000830152611de681611b5e565b9050919050565b60006020820190508181036000830152611e0681611b81565b9050919050565b6000602082019050611e226000830184611bf0565b92915050565b6000819050602082019050919050565b6000819050602082019050919050565b600081519050919050565b600081519050919050565b600081519050919050565b6000602082019050919050565b6000602082019050919050565b600082825260208201905092915050565b600082825260208201905092915050565b600082825260208201905092915050565b600082825260208201905092915050565b6000611ed282611f4c565b9150611edd83611f4c565b925082821015611ef057611eef612016565b5b828203905092915050565b6000611f0682611f2c565b9050919050565b60008115159050919050565b6000819050611f2782612218565b919050565b600073ffffffffffffffffffffffffffffffffffffffff82169050919050565b6000819050919050565b6000611f6182611f19565b9050919050565b60005b83811015611f86578082015181840152602081019050611f6b565b83811115611f95576000848401525b50505050565b60006002820490506001821680611fb357607f821691505b60208210811415611fc757611fc6612074565b5b50919050565b6000611fd882611f4c565b91507fffffffffffffffffffffffffffffffffffffffffffffffffffffffffffffffff82141561200b5761200a612016565b5b600182019050919050565b7f4e487b7100000000000000000000000000000000000000000000000000000000600052601160045260246000fd5b7f4e487b7100000000000000000000000000000000000000000000000000000000600052602160045260246000fd5b7f4e487b7100000000000000000000000000000000000000000000000000000000600052602260045260246000fd5b7f4e487b7100000000000000000000000000000000000000000000000000000000600052603260045260246000fd5b600080fd5b600080fd5b600080fd5b600080fd5b600080fd5b6000601f19601f8301169050919050565b7f4f776e61626c653a206e6577206f776e657220697320746865207a65726f206160008201527f6464726573730000000000000000000000000000000000000000000000000000602082015250565b7f4f776e61626c653a2063616c6c6572206973206e6f7420746865206f776e6572600082015250565b7f41646472657373206e6f742077686974656c6973746564000000000000000000600082015250565b7f416464726573732068617320616c726561647920766f74656400000000000000600082015250565b7f4164647265737320616c72656164792077686974656c69737465640000000000600082015250565b7f576f72666c6f77206e6f74207265737065637465640000000000000000000000600082015250565b6006811061222957612228612045565b5b50565b61223581611efb565b811461224057600080fd5b50565b61224c81611f4c565b811461225757600080fd5b5056fea2646970667358221220e870710cf545cf7f98da628bcbc585fcddf3a22fd76455c698d5f0b1bbc999e164736f6c63430008060033",
  "immutableReferences": {},
  "source": "// SPDX-License-Identifier: GPL-3.0\npragma solidity ^0.8.0;\n\nimport \"@openzeppelin/contracts/access/Ownable.sol\";\n\ncontract Voting is Ownable {\n\n    uint public winningProposalId;\n    WorkflowStatus public currentWorkflow;\n\n    struct Voter {\n        bool isRegistered;\n        bool hasVoted;\n        uint votedProposalId;\n    }\n\n    struct Proposal {\n        string description;\n        uint voteCount;\n    }\n\n    enum WorkflowStatus {\n        RegisteringVoters,\n        ProposalsRegistrationStarted,\n        ProposalsRegistrationEnded,\n        VotingSessionStarted,\n        VotingSessionEnded,\n        VotesTallied\n    }\n\n    event VoterRegistered(address voterAddress);\n    event ProposalsRegistrationStarted();\n    event ProposalsRegistrationEnded();\n    event ProposalRegistered(uint proposalId);\n    event VotingSessionStarted();\n    event VotingSessionEnded();\n    event Voted(address voter, uint proposalId);\n    event VotesTallied();\n    event WorkflowStatusChange(WorkflowStatus previousStatus, WorkflowStatus newStatus);\n\n    mapping (address => Voter) public whitelist;\n    address[] public addresses;\n    Proposal[] public proposals;\n\n    modifier onlyWhitelisted(address _address) {\n        require(whitelist[_address].isRegistered == true, \"Address not whitelisted\");\n        _;\n    }\n\n    modifier workflow(WorkflowStatus expectedWorkflow) {\n        require(currentWorkflow == expectedWorkflow, \"Worflow not respected\");\n        _;\n    }\n\n    function tallyVotes() external onlyOwner workflow(WorkflowStatus.VotingSessionEnded) {\n        changeWorkflowStatus(WorkflowStatus.VotesTallied);\n        emit VotesTallied();\n    }\n\n    function endVotingSession() external onlyOwner workflow(WorkflowStatus.VotingSessionStarted) {\n        changeWorkflowStatus(WorkflowStatus.VotingSessionEnded);\n        emit VotingSessionEnded();\n    }\n\n    function registerVote(uint proposalId) external onlyWhitelisted(msg.sender) workflow(WorkflowStatus.VotingSessionStarted) {\n        require(whitelist[msg.sender].hasVoted == false, \"Address has already voted\");\n        whitelist[msg.sender].hasVoted = true;\n        whitelist[msg.sender].votedProposalId = proposalId;\n        proposals[proposalId].voteCount++;\n\n        if (proposals[proposalId].voteCount > proposals[winningProposalId].voteCount) {\n            winningProposalId = proposalId;\n        }\n        emit Voted(msg.sender, proposalId);\n    }\n\n    function startVotingSession() external onlyOwner workflow(WorkflowStatus.ProposalsRegistrationEnded) {\n        changeWorkflowStatus(WorkflowStatus.VotingSessionStarted);\n        emit VotingSessionStarted();\n    }\n\n    function endProposalsRegistration() external onlyOwner workflow(WorkflowStatus.ProposalsRegistrationStarted) {\n        changeWorkflowStatus(WorkflowStatus.ProposalsRegistrationEnded);\n        emit ProposalsRegistrationEnded();\n    }\n\n    function registerProposal(string calldata description) external onlyWhitelisted(msg.sender) workflow(WorkflowStatus.ProposalsRegistrationStarted) {\n        proposals.push(Proposal(description, 0));\n        emit ProposalRegistered(proposals.length - 1);\n    }\n\n    function startProposalsRegistration() external onlyOwner workflow(WorkflowStatus.RegisteringVoters) {\n        changeWorkflowStatus(WorkflowStatus.ProposalsRegistrationStarted);\n        emit ProposalsRegistrationStarted();\n    }\n\n    function changeWorkflowStatus(WorkflowStatus newStatus) internal {\n        emit WorkflowStatusChange(currentWorkflow, newStatus);\n        currentWorkflow = newStatus;\n    }\n\n    function addToWhitelist(address _address) external onlyOwner {\n        require (whitelist[_address].isRegistered == false, \"Address already whitelisted\");\n        whitelist[_address].isRegistered = true;\n        addresses.push(_address);\n        emit VoterRegistered(_address);\n    }\n\n    function getAddresses() public view returns(address[] memory){\n        return addresses;\n    }\n\n    function getProposals() public view returns(Proposal[] memory){\n        return proposals;\n    }\n\n    function getWorkflow() public view returns(WorkflowStatus){\n       return currentWorkflow;\n    }\n\n    function getWinningProposalId() public view returns(uint){\n       return winningProposalId;\n    }\n\n    function isOwner() public view returns (bool){\n        return (msg.sender == owner());\n    }\n}\n",
  "sourcePath": "/Users/nicolas/Desktop/Solidity/VotingApp/contracts/Voting.sol",
  "compiler": {
    "name": "solc",
    "version": "0.8.6+commit.11564f7e.Emscripten.clang"
  },
  "schemaVersion": "3.4.1",
  "updatedAt": "2021-06-25T14:13:37.038Z",
  "networkType": "ethereum",
  "devdoc": {
    "kind": "dev",
    "methods": {
      "owner()": {
        "details": "Returns the address of the current owner."
      },
      "renounceOwnership()": {
        "details": "Leaves the contract without owner. It will not be possible to call `onlyOwner` functions anymore. Can only be called by the current owner. NOTE: Renouncing ownership will leave the contract without an owner, thereby removing any functionality that is only available to the owner."
      },
      "transferOwnership(address)": {
        "details": "Transfers ownership of the contract to a new account (`newOwner`). Can only be called by the current owner."
      }
    },
    "version": 1
  },
  "userdoc": {
    "kind": "user",
    "methods": {},
    "version": 1
  }
}