{
  "contractName": "SimpleStorage",
  "abi": [
    {
      "inputs": [
        {
          "internalType": "uint256",
          "name": "x",
          "type": "uint256"
        }
      ],
      "name": "set",
      "outputs": [],
      "stateMutability": "nonpayable",
      "type": "function"
    },
    {
      "inputs": [],
      "name": "get",
      "outputs": [
        {
          "internalType": "uint256",
          "name": "",
          "type": "uint256"
        }
      ],
      "stateMutability": "view",
      "type": "function",
      "constant": true
    }
  ],
  "bytecode": "0x608060405234801561001057600080fd5b5061016d806100206000396000f3fe608060405234801561001057600080fd5b5060043610610053576000357c01000000000000000000000000000000000000000000000000000000009004806360fe47b1146100585780636d4ce63c14610074575b600080fd5b610072600480360381019061006d91906100ba565b610092565b005b61007c61009c565b60405161008991906100f6565b60405180910390f35b8060008190555050565b60008054905090565b6000813590506100b481610120565b92915050565b6000602082840312156100d0576100cf61011b565b5b60006100de848285016100a5565b91505092915050565b6100f081610111565b82525050565b600060208201905061010b60008301846100e7565b92915050565b6000819050919050565b600080fd5b61012981610111565b811461013457600080fd5b5056fea2646970667358221220522b64d60d491097d9797cdb435642d246e89cd26b50aef00e6c871c93c8879664736f6c63430008050033",
  "immutableReferences": {},
  "source": "// SPDX-License-Identifier: MIT\npragma solidity ^0.8.0;\n\ncontract SimpleStorage {\n  uint data;\n  function set(uint x) public {\n      data = x;\n  }\n  function get() public view returns (uint) {\n      return data;\n  }\n}\n\n// deployed at: 0xFA0E2856e6cfA63A835dE4DAD29AD32d9DF0Ab7d",
  "sourcePath": "/Users/nicolas/Desktop/Truffle/Exo - Déployer sur le testnet avec Truffle/contracts/simpleStorage.sol",
  "compiler": {
    "name": "solc",
    "version": "0.8.5+commit.a4f2e591.Emscripten.clang"
  },
  "schemaVersion": "3.4.1",
  "updatedAt": "2021-06-17T11:03:25.875Z",
  "networkType": "ethereum",
  "devdoc": {
    "kind": "dev",
    "methods": {},
    "version": 1
  },
  "userdoc": {
    "kind": "user",
    "methods": {},
    "version": 1
  }
}